:020000040000FA
:100000000C9463000C94B4070C948D070C948B0033
:100010000C948B000C948B000C948B000C948B0034
:100020000C948B000C948B000C948B000C948B0024
:100030000C948B000C948B000C948B000C948B0014
:100040000C9443070C948B000C9411070C94EB0652
:100050000C948B000C948B000C948B000C948B00F4
:100060000C94DB070C948B00000000002400270098
:100070002A0000000000250028002B0000000000DE
:1000800023002600290004040404040404040202DA
:100090000202020203030303030301020408102007
:1000A0004080010204081020010204081020000012
:1000B0000008000201000003040700000000000027
:1000C00000003609360C11241FBECFEFD8E0DEBF8A
:1000D000CDBF22E0AAE4B1E001C01D92A63EB20766
:1000E000E1F711E0A0E0B1E0E2E1F2E202C0059048
:1000F0000D92AA34B107D9F710E0C2E6D0E004C0EF
:100100002197FE010E94FB0EC136D107C9F70E945C
:100110007A090C94FC100C94000090914B0181E042
:10012000911180E080934B01089508950895AF9256
:10013000BF92CF92DF92EF92FF920F931F93CF93D4
:10014000DF936C017B018B01040F151FEB015E0136
:10015000AE18BF08C017D10759F06991D601ED91CB
:10016000FC910190F081E02DC6010995892B79F76A
:10017000C501DF91CF911F910F91FF90EF90DF901C
:10018000CF90BF90AF900895FC01538D448D252FE3
:1001900030E0842F90E0821B930B541710F0CF9621
:1001A000089501970895FC01918D828D981761F053
:1001B000A28DAE0FBF2FB11D5D968C91928D9F5F6A
:1001C0009F73928F90E008958FEF9FEF0895FC0149
:1001D000918D828D981731F0828DE80FF11D858DFC
:1001E00090E008958FEF9FEF0895FC01918D228D8F
:1001F000892F90E0805C9F4F821B91098F73992714
:1002000008958DE292E00E94F50021E0892B09F427
:1002100020E0822F0895FC01A48DA80FB92FB11DF5
:10022000A35ABF4F2C91848D90E001968F7399272C
:10023000848FA689B7892C93A089B1898C9183700A
:1002400080648C93938D848D981306C00288F38903
:10025000E02D80818F7D80830895EF92FF920F9330
:100260001F93CF93DF93EC0181E0888F9B8D8C8D62
:1002700098131AC0E889F989808185FF15C09FB756
:10028000F894EE89FF896083E889F9898081837019
:10029000806480839FBF81E090E0DF91CF911F91C8
:1002A0000F91FF90EF900895F62E0B8D10E00F5FE9
:1002B0001F4F0F731127E02E8C8D8E110CC00FB6BF
:1002C00007FCFACFE889F989808185FFF5CFCE0157
:1002D0000E940B01F1CFEB8DEC0FFD2FF11DE35AC6
:1002E000FF4FF0829FB7F8940B8FEA89FB898081DA
:1002F0008062CFCFCF93DF93EC01888D8823B9F054
:10030000AA89BB89E889F9898C9185FD03C0808120
:1003100086FD0DC00FB607FCF7CF8C9185FFF2CF9D
:10032000808185FFEDCFCE010E940B01E9CFDF91E7
:10033000CF910895833081F028F4813099F0823094
:10034000A9F008958730A9F08830C9F08430B1F45D
:10035000809180008F7D03C0809180008F77809393
:100360008000089584B58F7784BD089584B58F7D0E
:10037000FBCF8091B0008F778093B000089580917B
:10038000B0008F7DF9CFCF93DF93282F30E0F901B4
:10039000E255FF4F8491F901E656FF4FD491F901E0
:1003A000EA57FF4FC491CC23A1F081110E949A011A
:1003B000EC2FF0E0EE0FFF1FE458FF4FA591B49132
:1003C000EC91ED2381E090E009F480E0DF91CF91A2
:1003D000089580E090E0FACF1F93CF93DF93282F0A
:1003E00030E0F901E255FF4F8491F901E656FF4FE5
:1003F000D491F901EA57FF4FC491CC23A9F0162FED
:1004000081110E949A01EC2FF0E0EE0FFF1FEE58D1
:10041000FF4FA591B4918FB7F894EC91111108C0DA
:10042000D095DE23DC938FBFDF91CF911F9108958C
:10043000DE2BF8CFCF93DF9390E0FC01E656FF4F21
:1004400024918A579F4FFC0184918823D1F090E03A
:10045000880F991FFC01E859FF4FA591B491FC0149
:10046000EE58FF4FC591D491623071F49FB7F89464
:100470003C91822F809583238C93E8812E2B2883B7
:100480009FBFDF91CF9108958FB7F894EC912E2BF9
:100490002C938FBFF6CF3FB7F894809106029091CE
:1004A0000702A0910802B091090226B5A89B05C0D9
:1004B0002F3F19F00196A11DB11D3FBFBA2FA92FE3
:1004C000982F8827BC01CD01620F711D811D911DE0
:1004D00042E0660F771F881F991F4A95D1F708954C
:1004E00008952091B701260F3327331F213231059C
:1004F000ECF42091DB01FC0190E080E0243069F015
:1005000082E00895A091B7012191AC0149565E4F58
:10051000A40FB52FB11D2C930196861798F38091E7
:10052000B701680F6093B70180E0089581E00895F6
:100530001092DB0181E08093DD011092DC0161E02B
:1005400082E10E94EC0161E083E10E94EC01E9EBB1
:10055000F0E080818E7F808380818D7F808388E43E
:100560008093B80085E48093BC000895CF93DF9317
:1005700091E0909396018823B9F0C091B800D09192
:10058000BA008091BC008A7B8093BC0060E082E16D
:100590000E94EC0160E083E10E94EC010E9498025D
:1005A000D093BA00C093B800DF91CF910895089519
:1005B000E091110280911002E81730F4F0E0EF585A
:1005C000FE4F808190E008958FEF9FEF0895909106
:1005D0001102809110022FEF3FEF981748F4E92F96
:1005E000F0E0EF58FE4F208130E09F5F90931102C2
:1005F000C90108958091100290911102891B990BF5
:100600000895CF92DF92EF92FF920F931F93CF93B3
:10061000DF937C01CB018A0120917001222389F0B4
:10062000EB016B01C40ED51ECC15DD0569F0699197
:10063000D701ED91FC910190F081E02DC701099562
:10064000F3CF642F0E947102C801DF91CF911F91F7
:100650000F91FF90EF90DF90CF900895CF93DF93AD
:100660001F92CDB7DEB76983209170012223F9F084
:1006700020910E02203258F021E030E0FC0133835B
:10068000228390E080E00F90DF91CF9108958091D8
:100690000F02E82FF0E0E05BFE4F998190838F5FBF
:1006A00080930F0280930E0281E090E0ECCF61E036
:1006B000CE0101960E947102F7CF90E080E008958C
:1006C000CF92DF92EF92FF920F931F93CF93DF931E
:1006D000EC0181E08093700180E680934A011092E2
:1006E0000F0210920E0260E48AEC92E00E942E0348
:1006F000BE0184E0759567958A95E1F78AEC92E0F2
:100700000E942E03BE0194E0660F771F9A95E1F7D1
:100710008AEC92E00E942E03C0910E02C13208F0D2
:1007200091C00E944B026B017C018091DB01811121
:1007300064C082E08093DB0181E08093DD018FEF74
:100740008093DA011092FF01C093FE01A0E5B1E0B1
:10075000EEEDF1E080E0C81384C0109200028091B9
:100760000002806C809300028091DC01813009F0EE
:100770007CC01092DC010E944B026B017C018091D5
:1007800000028093BB008091920190919301A0910F
:100790009401B0919501892B8A2B8B2B99F00E94A3
:1007A0004B0200919201109193012091940130919C
:1007B00095016C197D098E099F09061717072807EF
:1007C0003907E0F18091BC0083FDD9CF85EC80939F
:1007D000BC000E944B026B017C018091DB018230E6
:1007E00009F445C08091DA018F3F61F18091DA010F
:1007F000803241F18091DA0125C08091920190917F
:100800009301A0919401B0919501892B8A2B8B2B98
:1008100009F48BCF0E944B02009192011091930139
:1008200020919401309195016C197D098E099F09E1
:10083000061717072807390708F077CF809191012D
:100840000E94B60210920F0210920E0210927001D6
:10085000DF91CF911F910F91FF90EF90DF90CF909C
:1008600008959D9191938F5F76CF85EEB0CF809163
:10087000920190919301A0919401B0919501892BDF
:100880008A2B8B2B09F4A9CF0E944B020091920175
:100890001091930120919401309195016C197D097B
:1008A0008E099F09061717072807390708F095CF03
:1008B000C5CFCF92DF92EF92FF9281110CC061E021
:1008C00089E00E941A0260E089E0FF90EF90DF90DB
:1008D000CF900C94EC01813009F040C0C09004012D
:1008E000D0900501E0900601F090070120E03091E2
:1008F0000801032E000C440B550B60E074E284EFFA
:1009000090E00E94DC0E2150310930934F0120937A
:100910004E01B90190E080E00E944C0CA7019601C5
:100920000E94AD0C0E94810E70934D0160934C01AA
:1009300082E8809380008CE18093810080914E0159
:1009400090914F01909387008093860080914C0195
:1009500090914D019093890080938800FF90EF90D3
:10096000DF90CF900895FC0101900020E9F73197C6
:10097000AF01481B590BBC018DE292E00C9497002B
:100980008F929F92AF92BF920F931F93CF93DF935B
:10099000CDB7DEB7A1970FB6F894DEBF0FBECDBFBF
:1009A00019A2423008F44AE08E010F5D1F4F842ED9
:1009B000912CB12CA12CA50194010E94BA0EE62F16
:1009C000B901CA01EA30F4F4E05DD801EE938D017B
:1009D000232B242B252B79F790E080E0109719F03A
:1009E000CD010E94B304A1960FB6F894DEBF0FBEEE
:1009F000CDBFDF91CF911F910F91BF90AF909F908E
:100A00008F900895E95CE1CF4F925F926F927F9251
:100A10008F929F92AF92BF92CF92DF92EF92FF920E
:100A20000F931F93CF936B017C01742EAC019B013C
:100A30000E94B50E882399F084E391E0CF911F9135
:100A40000F91FF90EF90DF90CF90BF90AF909F906D
:100A50008F907F906F905F904F900C94B3044601FD
:100A60005701E894B7F82FEF3FEF4FE75FE7C50175
:100A7000B4010E94B50E81110DC02FEF3FEF4FE77B
:100A80005FE7C501B4010E94470C18161CF488E307
:100A900091E0D4CF2FEF3FEF4FE75FE4C701B601FE
:100AA0000E94B00E18161CF48CE391E0C7CF2FEF14
:100AB0003FEF4FE75FECC701B6010E94470C87FD8F
:100AC000F3CF20E030E0A901C701B6010E94470C36
:100AD00010E000E087FF0AC06DE28DE292E00E9424
:100AE0002D018C01F7FAF094F7F8F094C0E060E083
:100AF00070E080E09FE37C1641F020E030E040E2CF
:100B000051E40E940F0ECF5FF6CFA70196010E941D
:100B1000A30D2B013C010E94810E4B015C014AE0B8
:100B20000E94C0047C01E00EF11ECC23C1F1C5017E
:100B3000B4010E944C0C9B01AC01C301B2010E94A4
:100B4000A20D4B015C016EE28DE292E00E942D014C
:100B5000E80EF91EC15018F120E030E040E251E407
:100B6000C501B4010E94AD0C2B013C010E94810E15
:100B70004B01B12CA12C4AE0C501B4010E94C00474
:100B8000E80EF91EC501B4010E944C0C9B01AC019A
:100B9000C301B2010E94A20D4B015C01DBCFC70172
:100BA000CF911F910F91FF90EF90DF90CF90BF906A
:100BB000AF909F908F907F906F905F904F9008952F
:100BC000CF92DF92EF92FF92CF93DF936C01092EC9
:100BD000000CEE08FF0897FF1FC06DE28DE292E067
:100BE0000E942D01EC0166277727CB016C197D0946
:100BF0008E099F094AE00E94C004C80FD91F80E4F3
:100C000091E00E94B3048C0F9D1FDF91CF91FF9064
:100C1000EF90DF90CF9008954AE0C701B6010E949F
:100C2000C004EC01ECCF0F931F93CF93DF93EC0143
:100C300088819981009759F02A813B8126173707CF
:100C400030F081E0DF91CF911F910F9108958B01DA
:100C50006F5F7F4F0E942610009759F09983888319
:100C60001B830A832C813D81232B59F7FC011082C1
:100C7000E8CF80E0E7CF85ED8093BC0080919201C2
:100C800090919301A0919401B09195010796A11DB7
:100C9000B11D23E0B695A795979587952A95D1F72D
:100CA0002091BC0024FD03C01092DB010895409107
:100CB0009201509193016091940170919501452B9F
:100CC000462B472B69F30097A105B10541F025E3B9
:100CD0002A95F1F700000197A109B109E1CF8091B0
:100CE00091010C94B602EF92FF920F931F93CF9352
:100CF000DF9300D0CDB7DEB7EE24E3948DE292E02F
:100D00000E94F500892B09F457C08DE292E00E9401
:100D1000D300F82E89831A820091E0021091E1023B
:100D20000F5F1F4FB8018CED92E00E9413068823DD
:100D300099F02091DC023091DD028091E0029091E7
:100D4000E102BE016F5F7F4F820F931F0E94F5107B
:100D50001093E1020093E0028AE0F81202C0E092F0
:100D60002B028091E0029091E102892B71F063E403
:100D700071E08091DC029091DD020E94EC10892BE1
:100D800021F461E085E00E94EC018091E002909105
:100D9000E102892B09F4B2CF65E471E08091DC02B5
:100DA0009091DD020E94EC10892B09F0A7CF61E041
:100DB00084E00E94EC01A2CF0F900F90DF91CF91C1
:100DC0001F910F91FF90EF9008950E9401018111F2
:100DD0000C94730608951F920F920FB60F92112470
:100DE0002F933F934F935F936F937F938F939F9333
:100DF000AF93BF93EF93FF938DE292E00E940B01BC
:100E0000FF91EF91BF91AF919F918F917F916F91E2
:100E10005F914F913F912F910F900FBE0F901F90B8
:100E200018951F920F920FB60F9211242F938F9344
:100E30009F93EF93FF93E0913D02F0913E028081FA
:100E4000E0914302F091440282FD1BC090818091A9
:100E500046028F5F8F7320914702821741F0E09125
:100E60004602F0E0E35DFD4F958F80934602FF91CF
:100E7000EF919F918F912F910F900FBE0F901F9028
:100E800018958081F4CF1F920F920FB60F92112404
:100E90002F933F938F939F93AF93BF9380910202C1
:100EA00090910302A0910402B091050230910102D9
:100EB00023E0230F2D3758F50196A11DB11D209376
:100EC00001028093020290930302A0930402B09364
:100ED00005028091060290910702A0910802B0914C
:100EE00009020196A11DB11D80930602909307028D
:100EF000A0930802B0930902BF91AF919F918F9187
:100F00003F912F910F900FBE0F901F90189526E8DC
:100F1000230F0296A11DB11DD2CF1F920F920FB6C3
:100F20000F9211242F933F934F935F936F937F936F
:100F30008F939F93AF93BF93EF93FF93E091020141
:100F4000F09103010995FF91EF91BF91AF919F91AE
:100F50008F917F916F915F914F913F912F910F9062
:100F60000FBE0F901F9018951F920F920FB60F9201
:100F700011242F933F934F935F936F937F938F939E
:100F80009F93AF93BF93EF93FF93E0910001F09194
:100F900001010995FF91EF91BF91AF919F918F91C1
:100FA0007F916F915F914F913F912F910F900FBE65
:100FB0000F901F9018951F920F920FB60F92112449
:100FC0002F933F934F935F936F937F938F939F9351
:100FD000AF93BF93EF93FF938091B900887F8036E2
:100FE00009F44AC0F0F5883209F4A7C018F5803139
:100FF00009F49BC0B8F4882309F4F9C0883009F4D7
:1010000094C0FF91EF91BF91AF919F918F917F918C
:101010006F915F914F913F912F910F900FBE0F9065
:101020001F901895883109F488C0803251F7809359
:10103000DA0114C0803409F49DC040F48033B9F360
:101040008833F9F68093DA0185ECB0C0803509F475
:1010500085C0883509F496C0883499F60E943B060D
:10106000D0CF883909F48CC038F5883729F050F48E
:10107000883611F0803729F683E08093DB011092E7
:10108000D90157C0883809F47BC0803919F08038FD
:1010900009F0B7CF8091D901803208F071C0E0919A
:1010A000D90181E08E0F8093D9018091BB00F0E0DF
:1010B000E754FE4F80833DC0803B39F0E0F4803A36
:1010C00009F479C0883A09F09CCF84E08093DB0171
:1010D0001092B8011092B701E0910C02F0910D024C
:1010E00009958091B70181110FC081E08093B7010C
:1010F0001092970109C0803C09F4A6CF883C09F4FE
:10110000A3CF883B09F07DCFE091B80181E08E0F3D
:101110008093B801F0E0E956FE4F80818093BB00D8
:101120009091B8018091B70129C08091000280930D
:10113000BB0085EC8093BC0064CF9091FF0180914F
:10114000FE01981758F5E091FF0181E08E0F809322
:10115000FF01F0E0E252FE4F8081E9CFE091FF0114
:1011600081E08E0F8093FF018091BB00F0E0E2529E
:10117000FE4F80839091FF018091FE019817C8F285
:1011800085E8D8CFE091FF0181E08E0F8093FF01C9
:101190008091BB00F0E0E252FE4F80838091DD0140
:1011A00081115CCF81E08093DC0184EA8093BC00F4
:1011B0001092DB0126CF85EC8093BC001092DB01FE
:1011C0008091D901803230F4E091D901F0E0E75408
:1011D000FE4F10826091D90170E0E0910A02F09117
:1011E0000B0289EB91E009951092D9010ACF109278
:1011F000DA0134CFEF92FF920F931F93CF93DF93D7
:10120000EC017B01198218821B821A821D821C82CA
:10121000FB0101900020E9F731978F01061B170BA6
:10122000B8010E94130628813981811113C021154C
:10123000310519F0C9010E949D0F198218821D8283
:101240001C821B821A82DF91CF911F910F91FF9018
:10125000EF9008951D830C83B701C901DF91CF91F1
:101260001F910F91FF90EF900C94F510EDE2F2E0DA
:101270001382128288EE93E0A0E0B0E0848395832D
:10128000A683B78324E131E03183208325EC30E06D
:101290003587248724EC30E03787268720EC30E040
:1012A000318B208B21EC30E0338B228B22EC30E031
:1012B000358B248B26EC30E0378B268B118E128EEB
:1012C000138E148EEAECF2E01382128284839583EB
:1012D000A683B78386E291E09183808362E471E024
:1012E0008CED92E00E94FA0867E471E086ED92E0EE
:1012F0000C94FA08789484B5826084BD84B58160CA
:1013000084BD85B5826085BD85B5816085BD8091D0
:101310006E00816080936E00109281008091810048
:101320008260809381008091810081608093810040
:10133000809180008160809380008091B100846002
:101340008093B1008091B00081608093B000809163
:101350007A00846080937A0080917A008260809322
:101360007A0080917A00816080937A0080917A007F
:10137000806880937A001092C100E0913D02F09164
:101380003E0282E08083E0913902F0913A021082BD
:10139000E0913B02F0913C028FEC80831092450279
:1013A000E0914102F091420286E08083E0913F02A9
:1013B000F0914002808180618083E0913F02F09152
:1013C0004002808188608083E0913F02F09140027A
:1013D000808180688083E0913F02F09140028081AB
:1013E0008F7D808362E370E08CED92E00E941306B3
:1013F0008DE890E090930101809300018091690055
:101400008C7F816080936900E89A62E082E00E94AC
:101410001A0261E083E00E941A0261E084E00E9407
:101420001A0261E085E00E941A0261E086E00E94F3
:101430001A0262E087E00E941A0262E088E00E94DD
:101440001A0261E089E00E941A0262E08AE00E94CA
:101450001A0262E08BE00E941A0262E08CE00E94B5
:101460001A02109211021092100210920F021092A2
:101470000E020E94980285E990E090930D028093FD
:101480000C0286E990E090930B0280930A0201E43B
:1014900011E0C1E0D0E08BE00E94C3016C019093A9
:1014A0002802809327028CE00E94C3017C01909364
:1014B0002602809325028AE00E94C30190932402B1
:1014C0008093230287E00E94C3015C019093220273
:1014D0008093210288E00E94C301909320028093B0
:1014E0001F0280911D0290911E02C816D90651F06C
:1014F000C114D10409F092C110921C0280911C0207
:101500000E945904D0921E02C0921D0280911A02BC
:1015100090911B02E816F90631F0E114F10409F08C
:1015200085C110922C02F0921B02E0921A02809167
:10153000180290911902A816B90609F458C0AB28F0
:1015400009F04BC061E084E00E94EC018CE291E084
:101550000E9460038091160290911702019771F426
:101560008091080190910901823091053CF001972A
:1015700090930901809308010E94E0058091160272
:1015800090911702892B49F5C0900401D090050174
:10159000E0900601F09007012DEC3CEC4CE45EE39A
:1015A000C701B6010E94B00E87FD17C02DEC3CECC0
:1015B0004CEC5DE3C701B6010E94A20D60930401EB
:1015C00070930501809306019093070142E00E9409
:1015D000040580E491E00E94B3048091210290917F
:1015E0002202019721F460E084E00E94EC018091E6
:1015F0002102909122029093190280931802809107
:101600001F0290912002209114023091150282173E
:10161000930709F458C0892B09F04BC084E393E089
:101620000E94600361E086E00E94EC018091160256
:1016300090911702019771F480910801909109012E
:101640008A3091053CF4019690930901809308013A
:101650000E94E0058091160290911702892B49F5AE
:10166000C0900401D0900501E0900601F0900701C0
:1016700026E636E646E65FE3C701B6010E94470C60
:1016800087FF17C02DEC3CEC4CEC5DE3C701B601C5
:101690000E94A30D609304017093050180930601DD
:1016A0009093070142E00E94040580E491E00E94CB
:1016B000B30480911F0290912002019721F460E011
:1016C00086E00E94EC0180911F029091200290938D
:1016D000150280931402809123029091240220919C
:1016E0001202309113028217930739F0009709F024
:1016F000A5C01092170210921602909313028093C5
:10170000120280911C020E94590400937C00809177
:101710007A00806480937A0080917A0086FDFCCF05
:101720008091780060917900762F682F072E000C49
:10173000880B990B0E944E0C20E030E040EA5BE3FE
:101740000E94AD0C26E636E646E65FE30E94B00E48
:1017500087FD7DC010922A021092290280912C02EE
:10176000882339F08091290290912A0261E0892B27
:1017700009F460E083E00E94EC0180912B02882351
:1017800009F444C070E060E08CED92E00E94130622
:101790002091DC023091DD0281115EC021153105FE
:1017A00019F0C9010E949D0F1092DD021092DC0217
:1017B0001092E1021092E0021092DF021092DE021B
:1017C00010922B020E944B024B015C0184E6C82E52
:1017D000D12CE12CF12C0E944B02681979098A095D
:1017E0009B09683E734081059105A8F321E0C21A68
:1017F000D108E108F10888EE880E83E0981EA11C4C
:10180000B11CC114D104E104F10429F70E940101C3
:10181000882309F440CE0E9473063DCE21E0C21613
:10182000D10409F06BCE10931C0268CE81E0E8165B
:10183000F10409F078CE10932C0275CE8130910519
:1018400009F05BCF909317028093160256CFD09386
:101850002A02C093290282CF1092E1021092E00284
:1018600062E471E0C9010E94F510AACF8091D6020E
:101870009091D702009711F00E949D0F8091DC0299
:101880009091DD02009711F00C949D0F08950E9435
:10189000890C08F481E00895E89409C097FB3EF4B0
:1018A00090958095709561957F4F8F4F9F4F9923AD
:1018B000A9F0F92F96E9BB279395F695879577952B
:1018C0006795B795F111F8CFFAF4BB0F11F460FFEB
:1018D0001BC06F5F7F4F8F4F9F4F16C0882311F043
:1018E00096E911C0772321F09EE8872F762F05C057
:1018F000662371F096E8862F70E060E02AF09A95F2
:10190000660F771F881FDAF7880F9695879597F9E6
:101910000895990F0008550FAA0BE0E8FEEF161680
:101920001706E807F907C0F012161306E407F507D3
:1019300098F0621B730B840B950B39F40A2661F047
:10194000232B242B252B21F408950A2609F4A140EA
:10195000A6958FEF811D811D08950E94C00C0C94E7
:10196000310D0E94230D38F00E942A0D20F095239E
:1019700011F00C941A0D0C94200D11240C94650D8B
:101980000E94420D70F3959FC1F3950F50E0551FD3
:10199000629FF001729FBB27F00DB11D639FAA27C4
:1019A000F00DB11DAA1F649F6627B00DA11D661F13
:1019B000829F2227B00DA11D621F739FB00DA11D34
:1019C000621F839FA00D611D221F749F3327A00DEE
:1019D000611D231F849F600D211D822F762F6A2F8A
:1019E00011249F5750409AF0F1F088234AF0EE0FEF
:1019F000FF1FBB1F661F771F881F91505040A9F71C
:101A00009E3F510580F00C941A0D0C94650D5F3FBC
:101A1000E4F3983ED4F3869577956795B795F79557
:101A2000E7959F5FC1F7FE2B880F911D96958795CF
:101A300097F9089597F99F6780E870E060E008954E
:101A40009FEF80EC089500240A94161617061806D6
:101A50000906089500240A941216130614060506B2
:101A60000895092E0394000C11F4882352F0BB0F43
:101A700040F4BF2B11F460FF04C06F5F7F4F8F4FA6
:101A80009F4F089557FD9058440F551F59F05F3FE1
:101A900071F04795880F97FB991F61F09F3F79F090
:101AA00087950895121613061406551FF2CF469512
:101AB000F1DF08C0161617061806991FF1CF869594
:101AC0007105610508940895E894BB276627772778
:101AD000CB0197F908952F923F924F925F926F92A8
:101AE0007F928F929F92AF92BF92CF92DF92EF92AE
:101AF000FF920F931F93CF93DF93CDB7DEB7CA1B2F
:101B0000DB0B0FB6F894DEBF0FBECDBF09942A8859
:101B1000398848885F846E847D848C849B84AA8401
:101B2000B984C884DF80EE80FD800C811B81AA818E
:101B3000B981CE0FD11D0FB6F894DEBF0FBECDBF59
:101B4000ED0108955058BB27AA270E94BA0D0C94A6
:101B5000310D0E94230D38F00E942A0D20F039F437
:101B60009F3F19F426F40C94200D0EF4E095E7FB4A
:101B70000C941A0DE92F0E94420D58F3BA17620710
:101B800073078407950720F079F4A6F50C94640D8B
:101B90000EF4E0950B2EBA2FA02D0B01B901900188
:101BA0000C01CA01A0011124FF27591B99F0593FCC
:101BB00050F4503E68F11A16F040A22F232F342F14
:101BC0004427585FF3CF469537952795A795F04062
:101BD0005395C9F77EF41F16BA0B620B730B840B77
:101BE000BAF09150A1F0FF0FBB1F661F771F881F2F
:101BF000C2F70EC0BA0F621F731F841F48F4879587
:101C000077956795B795F7959E3F08F0B0CF939578
:101C1000880F08F09927EE0F9795879508950E94F1
:101C2000230E0C94310D0E942A0D58F00E94230DB2
:101C300040F029F45F3F29F00C941A0D51110C94D7
:101C4000650D0C94200D0E94420D68F39923B1F3A9
:101C5000552391F3951B550BBB27AA2762177307D2
:101C6000840738F09F5F5F4F220F331F441FAA1F66
:101C7000A9F335D00E2E3AF0E0E832D09150504022
:101C8000E695001CCAF72BD0FE2F29D0660F771FD0
:101C9000881FBB1F261737074807AB07B0E809F0B6
:101CA000BB0B802DBF01FF2793585F4F3AF09E3F3B
:101CB000510578F00C941A0D0C94650D5F3FE4F318
:101CC000983ED4F3869577956795B795F7959F5F7E
:101CD000C9F7880F911D9695879597F90895E1E0CA
:101CE000660F771F881FBB1F621773078407BA0729
:101CF00020F0621B730B840BBA0BEE1F88F7E09584
:101D000008950E944A0D88F09F5798F0B92F99279F
:101D1000B751B0F0E1F0660F771F881F991F1AF0D6
:101D2000BA95C9F714C0B13091F00E94640DB1E0CA
:101D300008950C94640D672F782F8827B85F39F0C9
:101D4000B93FCCF3869577956795B395D9F73EF46F
:101D500090958095709561957F4F8F4F9F4F089517
:101D60000E94890C08F48FEF08950E94890C880B5B
:101D7000990B0895A1E21A2EAA1BBB1BFD010DC0F1
:101D8000AA1FBB1FEE1FFF1FA217B307E407F5072B
:101D900020F0A21BB30BE40BF50B661F771F881F07
:101DA000991F1A9469F760957095809590959B019D
:101DB000AC01BD01CF010895052E97FB1EF40094E0
:101DC0000E94F30E57FD07D00E94BA0E07FC03D005
:101DD0004EF40C94F30E50954095309521953F4F5D
:101DE0004F4F5F4F089590958095709561957F4F07
:101DF0008F4F9F4F0895EE0FFF1F0590F491E02D38
:101E000009940F931F93CF93DF938230910510F4C1
:101E100082E090E0E091E402F091E50230E020E021
:101E2000B0E0A0E0309799F42115310509F44AC0DB
:101E3000281B390B24303105D8F58A819B81611527
:101E4000710589F1FB0193838283FE0111C04081FA
:101E500051810281138148175907E0F0481759074B
:101E600099F4109761F012960C93129713961C93A5
:101E70003296CF01DF91CF911F910F91089500937A
:101E8000E4021093E502F4CF2115310551F0421719
:101E9000530738F0A901DB019A01BD01DF01F80108
:101EA000C1CFEF01F9CF9093E5028093E402CDCF4B
:101EB000FE01E20FF31F8193919322503109398380
:101EC0002883D7CF2091E2023091E302232B41F403
:101ED00020910C0130910D013093E3022093E20236
:101EE00020910A0130910B012115310541F42DB7E4
:101EF0003EB740910E0150910F01241B350BE0912C
:101F0000E202F091E302E217F307A0F42E1B3F0B6D
:101F10002817390778F0AC014E5F5F4F241735075B
:101F200048F04E0F5F1F5093E3024093E20281930B
:101F300091939FCFF0E0E0E09CCFCF93DF930097A9
:101F4000E9F0FC01329713821282A091E402B09171
:101F5000E502ED0130E020E01097A1F4208131810D
:101F6000820F931F2091E2023091E3022817390774
:101F700009F061C0F093E302E093E202DF91CF91B8
:101F80000895EA01CE17DF07E8F54A815B819E01DB
:101F900041155105B1F7E901FB83EA834991599154
:101FA000C40FD51FEC17FD0761F480819181029663
:101FB000840F951FE90199838883828193819B8394
:101FC0008A83F0E0E0E012968D919C911397009740
:101FD000B9F52D913C911197CD010296820F931F77
:101FE0002091E2023091E3022817390739F6309741
:101FF00051F51092E5021092E402B093E302A0932F
:10200000E202BCCFD383C28340815181840F951FEC
:10201000C817D90761F44E5F5F4F88819981480FD7
:10202000591F518340838A819B8193838283211529
:10203000310509F0B0CFF093E502E093E4029ECFC2
:10204000FD01DC01C0CF13821282D7CFB0E0A0E047
:10205000ECE2F0E10C946D0D8C01009751F4CB0192
:102060000E94010F8C01C801CDB7DEB7E0E10C94EE
:10207000890DFC01E60FF71F9C0122503109E21780
:10208000F30708F49DC0D901CD91DC911197C617D3
:10209000D70798F0C530D10530F3CE0104978617E5
:1020A000970708F3C61BD70B2297C193D1936D9363
:1020B0007C93CF010E949D0FD6CF5B01AC1ABD0A65
:1020C0004C018C0E9D1EA091E402B091E502512CB2
:1020D000412CF12CE12C109731F58091E202909186
:1020E000E3028815990509F05CC04616570608F00A
:1020F00058C080910A0190910B01009741F48DB76F
:102100009EB740910E0150910F01841B950BE8176B
:10211000F90708F055C0F093E302E093E202F901F9
:1021200071836083A0CF8D919C91119712966C90D2
:10213000129713967C901397A815B90559F56C0161
:1021400042E0C40ED11CCA14DB0420F1AC014A19D0
:102150005B09DA011296159780F0628273825183CF
:102160004083D9016D937C93E114F10471F0D701A0
:102170001396FC93EE93129776CF22968C0F9D1FA9
:10218000F90191838083F301EFCFF093E502E093AF
:10219000E40269CF4816590608F42C017D01D301E9
:1021A0009ACFCB010E94010F7C01009749F0AE014C
:1021B000B8010E94E310C8010E949D0F870153CF10
:1021C00010E000E050CFFB01DC0102C001900D9255
:1021D00041505040D8F70895FB01DC018D910190EA
:1021E00080190110D9F3990B0895FB01DC010190CE
:1021F0000D920020E1F7089510E0C2E6D0E004C09F
:10220000FE010E94FB0E2196C336D107C9F7F89450
:10221000FFCF700270020000003F01000000E602E4
:102220008000000000002D019700C4007A01F50035
:10223000D300E700000000002E0301035D03D70276
:10224000FA02E702D8026E616E00696E66006F7670
:0C22500066000D0A00320033003100006F
:107E0000112484B714BE81FFF0D085E080938100F7
:107E100082E08093C00088E18093C10086E0809377
:107E2000C20080E18093C4008EE0C9D0259A86E02C
:107E300020E33CEF91E0309385002093840096BBD3
:107E4000B09BFECF1D9AA8958150A9F7CC24DD24C4
:107E500088248394B5E0AB2EA1E19A2EF3E0BF2EE7
:107E6000A2D0813461F49FD0082FAFD0023811F036
:107E7000013811F484E001C083E08DD089C08234E0
:107E800011F484E103C0853419F485E0A6D080C0E4
:107E9000853579F488D0E82EFF2485D0082F10E0AE
:107EA000102F00270E291F29000F111F8ED06801E7
:107EB0006FC0863521F484E090D080E0DECF843638
:107EC00009F040C070D06FD0082F6DD080E0C81688
:107ED00080E7D80618F4F601B7BEE895C0E0D1E017
:107EE00062D089930C17E1F7F0E0CF16F0E7DF06D8
:107EF00018F0F601B7BEE89568D007B600FCFDCFD4
:107F0000A601A0E0B1E02C9130E011968C91119780
:107F100090E0982F8827822B932B1296FA010C0160
:107F200087BEE89511244E5F5F4FF1E0A038BF0790
:107F300051F7F601A7BEE89507B600FCFDCF97BE46
:107F4000E89526C08437B1F42ED02DD0F82E2BD052
:107F50003CD0F601EF2C8F010F5F1F4F84911BD097
:107F6000EA94F801C1F70894C11CD11CFA94CF0C13
:107F7000D11C0EC0853739F428D08EE10CD085E9AC
:107F80000AD08FE07ACF813511F488E018D01DD067
:107F900080E101D065CF982F8091C00085FFFCCF94
:107FA0009093C60008958091C00087FFFCCF809118
:107FB000C00084FD01C0A8958091C6000895E0E648
:107FC000F0E098E1908380830895EDDF803219F02E
:107FD00088E0F5DFFFCF84E1DECF1F93182FE3DFCA
:107FE0001150E9F7F2DF1F91089580E0E8DFEE27F6
:047FF000FF270994CA
:027FFE00040479
:00000001FF
